{
  "contractName": "HealthcarePayments",
  "abi": [
    {
      "inputs": [],
      "stateMutability": "nonpayable",
      "type": "constructor"
    },
    {
      "anonymous": false,
      "inputs": [
        {
          "indexed": true,
          "internalType": "address",
          "name": "from",
          "type": "address"
        },
        {
          "indexed": true,
          "internalType": "address",
          "name": "to",
          "type": "address"
        },
        {
          "indexed": false,
          "internalType": "string",
          "name": "billId",
          "type": "string"
        },
        {
          "indexed": false,
          "internalType": "uint256",
          "name": "value",
          "type": "uint256"
        }
      ],
      "name": "TransactionMade",
      "type": "event"
    },
    {
      "inputs": [
        {
          "internalType": "address",
          "name": "",
          "type": "address"
        }
      ],
      "name": "accountForWithdraw",
      "outputs": [
        {
          "internalType": "bool",
          "name": "",
          "type": "bool"
        }
      ],
      "stateMutability": "view",
      "type": "function",
      "constant": true
    },
    {
      "stateMutability": "payable",
      "type": "receive",
      "payable": true
    },
    {
      "inputs": [
        {
          "internalType": "string",
          "name": "_billId",
          "type": "string"
        },
        {
          "internalType": "string",
          "name": "_patientId",
          "type": "string"
        }
      ],
      "name": "addFunds",
      "outputs": [],
      "stateMutability": "payable",
      "type": "function",
      "payable": true
    },
    {
      "inputs": [],
      "name": "getArrayPayment",
      "outputs": [
        {
          "components": [
            {
              "internalType": "string",
              "name": "billId",
              "type": "string"
            },
            {
              "internalType": "string",
              "name": "patientId",
              "type": "string"
            },
            {
              "internalType": "uint256",
              "name": "paidAmount",
              "type": "uint256"
            },
            {
              "internalType": "address",
              "name": "patientAccount",
              "type": "address"
            }
          ],
          "internalType": "struct HealthcarePayments.Bill[]",
          "name": "",
          "type": "tuple[]"
        }
      ],
      "stateMutability": "view",
      "type": "function",
      "constant": true
    },
    {
      "inputs": [
        {
          "internalType": "uint256",
          "name": "withdrawAmount",
          "type": "uint256"
        }
      ],
      "name": "withdraw",
      "outputs": [],
      "stateMutability": "nonpayable",
      "type": "function"
    }
  ],
  "bytecode": "0x608060405234801561001057600080fd5b506001806000730199c74bb832c0ccf1971cd34fe0bbe7d12a1dc073ffffffffffffffffffffffffffffffffffffffff1673ffffffffffffffffffffffffffffffffffffffff16815260200190815260200160002060006101000a81548160ff021916908315150217905550600180600073287aebd0467bde80370042ded258d9abadf9448773ffffffffffffffffffffffffffffffffffffffff1673ffffffffffffffffffffffffffffffffffffffff16815260200190815260200160002060006101000a81548160ff02191690831515021790555060018060007326edb1c9f9d86da98366da01e5e427cca69dccc073ffffffffffffffffffffffffffffffffffffffff1673ffffffffffffffffffffffffffffffffffffffff16815260200190815260200160002060006101000a81548160ff021916908315150217905550610eee806101616000396000f3fe6080604052600436106100435760003560e01c80632e1a7d4d1461004f5780635640cab014610078578063612c2fa81461009457806382fe38a2146100bf5761004a565b3661004a57005b600080fd5b34801561005b57600080fd5b50610076600480360381019061007191906105bc565b6100fc565b005b610092600480360381019061008d919061072f565b6101d4565b005b3480156100a057600080fd5b506100a961036f565b6040516100b691906109a2565b60405180910390f35b3480156100cb57600080fd5b506100e660048036038101906100e191906109f0565b610552565b6040516100f39190610a38565b60405180910390f35b33600160008273ffffffffffffffffffffffffffffffffffffffff1673ffffffffffffffffffffffffffffffffffffffff16815260200190815260200160002060009054906101000a900460ff16610189576040517f08c379a000000000000000000000000000000000000000000000000000000000815260040161018090610ad6565b60405180910390fd5b3373ffffffffffffffffffffffffffffffffffffffff166108fc839081150290604051600060405180830381858888f193505050501580156101cf573d6000803e3d6000fd5b505050565b6000339050600034905060008111610221576040517f08c379a000000000000000000000000000000000000000000000000000000000815260040161021890610b42565b60405180910390fd5b600060405180608001604052808681526020018581526020018381526020018473ffffffffffffffffffffffffffffffffffffffff16815250908060018154018082558091505060019003906000526020600020906004020160009091909190915060008201518160000190816102989190610d6e565b5060208201518160010190816102ae9190610d6e565b506040820151816002015560608201518160030160006101000a81548173ffffffffffffffffffffffffffffffffffffffff021916908373ffffffffffffffffffffffffffffffffffffffff16021790555050503073ffffffffffffffffffffffffffffffffffffffff163373ffffffffffffffffffffffffffffffffffffffff167f2ef2822b306502538263a9a22eff932f9be3de14fbc0691087ddc74e96465f4e8634604051610361929190610e88565b60405180910390a350505050565b60606000805480602002602001604051908101604052809291908181526020016000905b8282101561054957838290600052602060002090600402016040518060800160405290816000820180546103c690610b91565b80601f01602080910402602001604051908101604052809291908181526020018280546103f290610b91565b801561043f5780601f106104145761010080835404028352916020019161043f565b820191906000526020600020905b81548152906001019060200180831161042257829003601f168201915b5050505050815260200160018201805461045890610b91565b80601f016020809104026020016040519081016040528092919081815260200182805461048490610b91565b80156104d15780601f106104a6576101008083540402835291602001916104d1565b820191906000526020600020905b8154815290600101906020018083116104b457829003601f168201915b50505050508152602001600282015481526020016003820160009054906101000a900473ffffffffffffffffffffffffffffffffffffffff1673ffffffffffffffffffffffffffffffffffffffff1673ffffffffffffffffffffffffffffffffffffffff168152505081526020019060010190610393565b50505050905090565b60016020528060005260406000206000915054906101000a900460ff1681565b6000604051905090565b600080fd5b600080fd5b6000819050919050565b61059981610586565b81146105a457600080fd5b50565b6000813590506105b681610590565b92915050565b6000602082840312156105d2576105d161057c565b5b60006105e0848285016105a7565b91505092915050565b600080fd5b600080fd5b6000601f19601f8301169050919050565b7f4e487b7100000000000000000000000000000000000000000000000000000000600052604160045260246000fd5b61063c826105f3565b810181811067ffffffffffffffff8211171561065b5761065a610604565b5b80604052505050565b600061066e610572565b905061067a8282610633565b919050565b600067ffffffffffffffff82111561069a57610699610604565b5b6106a3826105f3565b9050602081019050919050565b82818337600083830152505050565b60006106d26106cd8461067f565b610664565b9050828152602081018484840111156106ee576106ed6105ee565b5b6106f98482856106b0565b509392505050565b600082601f830112610716576107156105e9565b5b81356107268482602086016106bf565b91505092915050565b600080604083850312156107465761074561057c565b5b600083013567ffffffffffffffff81111561076457610763610581565b5b61077085828601610701565b925050602083013567ffffffffffffffff81111561079157610790610581565b5b61079d85828601610701565b9150509250929050565b600081519050919050565b600082825260208201905092915050565b6000819050602082019050919050565b600081519050919050565b600082825260208201905092915050565b60005b8381101561080d5780820151818401526020810190506107f2565b60008484015250505050565b6000610824826107d3565b61082e81856107de565b935061083e8185602086016107ef565b610847816105f3565b840191505092915050565b61085b81610586565b82525050565b600073ffffffffffffffffffffffffffffffffffffffff82169050919050565b600061088c82610861565b9050919050565b61089c81610881565b82525050565b600060808301600083015184820360008601526108bf8282610819565b915050602083015184820360208601526108d98282610819565b91505060408301516108ee6040860182610852565b5060608301516109016060860182610893565b508091505092915050565b600061091883836108a2565b905092915050565b6000602082019050919050565b6000610938826107a7565b61094281856107b2565b935083602082028501610954856107c3565b8060005b858110156109905784840389528151610971858261090c565b945061097c83610920565b925060208a01995050600181019050610958565b50829750879550505050505092915050565b600060208201905081810360008301526109bc818461092d565b905092915050565b6109cd81610881565b81146109d857600080fd5b50565b6000813590506109ea816109c4565b92915050565b600060208284031215610a0657610a0561057c565b5b6000610a14848285016109db565b91505092915050565b60008115159050919050565b610a3281610a1d565b82525050565b6000602082019050610a4d6000830184610a29565b92915050565b600082825260208201905092915050565b7f596f75722077616c6c65742061646472657373206973206e6f7420616c6c6f7760008201527f656420746f207769746864726177000000000000000000000000000000000000602082015250565b6000610ac0602e83610a53565b9150610acb82610a64565b604082019050919050565b60006020820190508181036000830152610aef81610ab3565b9050919050565b7f416d6f756e74206d7573742062652067726561746572207468616e2030000000600082015250565b6000610b2c601d83610a53565b9150610b3782610af6565b602082019050919050565b60006020820190508181036000830152610b5b81610b1f565b9050919050565b7f4e487b7100000000000000000000000000000000000000000000000000000000600052602260045260246000fd5b60006002820490506001821680610ba957607f821691505b602082108103610bbc57610bbb610b62565b5b50919050565b60008190508160005260206000209050919050565b60006020601f8301049050919050565b600082821b905092915050565b600060088302610c247fffffffffffffffffffffffffffffffffffffffffffffffffffffffffffffffff82610be7565b610c2e8683610be7565b95508019841693508086168417925050509392505050565b6000819050919050565b6000610c6b610c66610c6184610586565b610c46565b610586565b9050919050565b6000819050919050565b610c8583610c50565b610c99610c9182610c72565b848454610bf4565b825550505050565b600090565b610cae610ca1565b610cb9818484610c7c565b505050565b5b81811015610cdd57610cd2600082610ca6565b600181019050610cbf565b5050565b601f821115610d2257610cf381610bc2565b610cfc84610bd7565b81016020851015610d0b578190505b610d1f610d1785610bd7565b830182610cbe565b50505b505050565b600082821c905092915050565b6000610d4560001984600802610d27565b1980831691505092915050565b6000610d5e8383610d34565b9150826002028217905092915050565b610d77826107d3565b67ffffffffffffffff811115610d9057610d8f610604565b5b610d9a8254610b91565b610da5828285610ce1565b600060209050601f831160018114610dd85760008415610dc6578287015190505b610dd08582610d52565b865550610e38565b601f198416610de686610bc2565b60005b82811015610e0e57848901518255600182019150602085019450602081019050610de9565b86831015610e2b5784890151610e27601f891682610d34565b8355505b6001600288020188555050505b505050505050565b6000610e4b826107d3565b610e558185610a53565b9350610e658185602086016107ef565b610e6e816105f3565b840191505092915050565b610e8281610586565b82525050565b60006040820190508181036000830152610ea28185610e40565b9050610eb16020830184610e79565b939250505056fea2646970667358221220ccd1dd7a60a1bbab6e8c89f976f0b9ad5cfa5c60cc320c4fe67f53205a91fb3764736f6c63430008110033",
  "immutableReferences": {},
  "source": "// SPDX-License-Identifier: GPL-3.0\r\n\r\npragma solidity >=0.7.0 <0.9.0;\r\n\r\ncontract HealthcarePayments {\r\n    receive() external payable {}\r\n\r\n    struct Bill {\r\n        string billId;\r\n        string patientId;\r\n        uint256 paidAmount;\r\n        address patientAccount;\r\n    }\r\n\r\n    Bill[] paymentList;\r\n    mapping(address => bool) public accountForWithdraw;\r\n\r\n    constructor() {\r\n        accountForWithdraw[0x0199C74bB832C0CcF1971CD34Fe0bBE7D12A1DC0] = true;\r\n        accountForWithdraw[0x287AebD0467bde80370042DEd258D9ABADf94487] = true;\r\n        accountForWithdraw[0x26edb1c9f9D86Da98366da01E5e427ccA69dCcC0] = true;\r\n    }\r\n\r\n    event TransactionMade(\r\n        address indexed from,\r\n        address indexed to,\r\n        string billId,\r\n        uint256 value\r\n    );\r\n\r\n    function addFunds(string memory _billId, string memory _patientId)\r\n        external\r\n        payable\r\n    {\r\n        address _patientAccount = msg.sender;\r\n        uint256 _paidAmount = msg.value;\r\n        require(_paidAmount > 0, \"Amount must be greater than 0\");\r\n        paymentList.push(\r\n            Bill(_billId, _patientId, _paidAmount, _patientAccount)\r\n        );\r\n        emit TransactionMade(msg.sender, address(this), _billId, msg.value);\r\n    }\r\n\r\n    function getArrayPayment() public view returns (Bill[] memory) {\r\n        return paymentList;\r\n    }\r\n\r\n    function withdraw(uint256 withdrawAmount)\r\n        public\r\n        checkValidAccount(msg.sender)\r\n    {\r\n        payable(msg.sender).transfer(withdrawAmount);\r\n    }\r\n\r\n    modifier checkValidAccount(address withdrawAccount) {\r\n        require(\r\n            accountForWithdraw[withdrawAccount],\r\n            \"Your wallet address is not allowed to withdraw\"\r\n        );\r\n        _;\r\n    }\r\n}\r\n",
  "sourcePath": "F:\\Pentest Document\\Development\\Fullstack\\Reactjs\\contracts\\HealthcarePayments.sol",
  "compiler": {
    "name": "solc",
    "version": "0.8.17+commit.8df45f5f.Emscripten.clang"
  },
  "schemaVersion": "3.4.11",
  "updatedAt": "2023-01-11T13:39:16.950Z",
  "networkType": "ethereum",
  "devdoc": {
    "kind": "dev",
    "methods": {},
    "version": 1
  },
  "userdoc": {
    "kind": "user",
    "methods": {},
    "version": 1
  }
}